{
  "_format": "hh-sol-artifact-1",
  "contractName": "TokenFactory",
  "sourceName": "contracts/TokenFactory.sol",
  "abi": [
    {
      "inputs": [],
      "stateMutability": "nonpayable",
      "type": "constructor"
    },
    {
      "inputs": [
        {
          "internalType": "address",
          "name": "owner",
          "type": "address"
        }
      ],
      "name": "OwnableInvalidOwner",
      "type": "error"
    },
    {
      "inputs": [
        {
          "internalType": "address",
          "name": "account",
          "type": "address"
        }
      ],
      "name": "OwnableUnauthorizedAccount",
      "type": "error"
    },
    {
      "anonymous": false,
      "inputs": [
        {
          "indexed": true,
          "internalType": "address",
          "name": "previousOwner",
          "type": "address"
        },
        {
          "indexed": true,
          "internalType": "address",
          "name": "newOwner",
          "type": "address"
        }
      ],
      "name": "OwnershipTransferred",
      "type": "event"
    },
    {
      "anonymous": false,
      "inputs": [
        {
          "indexed": false,
          "internalType": "address",
          "name": "tokenAddress",
          "type": "address"
        },
        {
          "indexed": false,
          "internalType": "string",
          "name": "name",
          "type": "string"
        },
        {
          "indexed": false,
          "internalType": "string",
          "name": "symbol",
          "type": "string"
        },
        {
          "indexed": false,
          "internalType": "uint256",
          "name": "supply",
          "type": "uint256"
        },
        {
          "indexed": false,
          "internalType": "address",
          "name": "creator",
          "type": "address"
        }
      ],
      "name": "TokenCreated",
      "type": "event"
    },
    {
      "inputs": [
        {
          "internalType": "string",
          "name": "name",
          "type": "string"
        },
        {
          "internalType": "string",
          "name": "symbol",
          "type": "string"
        },
        {
          "internalType": "uint256",
          "name": "totalSupply",
          "type": "uint256"
        }
      ],
      "name": "createToken",
      "outputs": [
        {
          "internalType": "address",
          "name": "tokenAddress",
          "type": "address"
        }
      ],
      "stateMutability": "payable",
      "type": "function"
    },
    {
      "inputs": [],
      "name": "creationFee",
      "outputs": [
        {
          "internalType": "uint256",
          "name": "",
          "type": "uint256"
        }
      ],
      "stateMutability": "view",
      "type": "function"
    },
    {
      "inputs": [],
      "name": "feeReceiver",
      "outputs": [
        {
          "internalType": "address",
          "name": "",
          "type": "address"
        }
      ],
      "stateMutability": "view",
      "type": "function"
    },
    {
      "inputs": [],
      "name": "owner",
      "outputs": [
        {
          "internalType": "address",
          "name": "",
          "type": "address"
        }
      ],
      "stateMutability": "view",
      "type": "function"
    },
    {
      "inputs": [],
      "name": "renounceOwnership",
      "outputs": [],
      "stateMutability": "nonpayable",
      "type": "function"
    },
    {
      "inputs": [
        {
          "internalType": "uint256",
          "name": "_fee",
          "type": "uint256"
        }
      ],
      "name": "setFee",
      "outputs": [],
      "stateMutability": "nonpayable",
      "type": "function"
    },
    {
      "inputs": [
        {
          "internalType": "address",
          "name": "_receiver",
          "type": "address"
        }
      ],
      "name": "setFeeReceiver",
      "outputs": [],
      "stateMutability": "nonpayable",
      "type": "function"
    },
    {
      "inputs": [
        {
          "internalType": "address",
          "name": "newOwner",
          "type": "address"
        }
      ],
      "name": "transferOwnership",
      "outputs": [],
      "stateMutability": "nonpayable",
      "type": "function"
    }
  ],
  "bytecode": "0x608060405266038d7ea4c68000600155348015601a57600080fd5b503380604057604051631e4fbdf760e01b81526000600482015260240160405180910390fd5b604781605e565b50600280546001600160a01b0319163317905560ae565b600080546001600160a01b038381166001600160a01b0319831681178455604051919092169283917f8be0079c531659141344cd1fd0a4f28419497f9722a3daafe3b4186f6b6457e09190a35050565b611224806100bd6000396000f3fe60806040526004361061007b5760003560e01c8063b3f006741161004e578063b3f0067414610105578063dce0b4e414610125578063efdcd97414610149578063f2fde38b1461016957600080fd5b80635b0605301461008057806369fe0e2d146100b0578063715018a6146100d25780638da5cb5b146100e7575b600080fd5b61009361008e366004610431565b610189565b6040516001600160a01b0390911681526020015b60405180910390f35b3480156100bc57600080fd5b506100d06100cb3660046104aa565b6102d5565b005b3480156100de57600080fd5b506100d06102e2565b3480156100f357600080fd5b506000546001600160a01b0316610093565b34801561011157600080fd5b50600254610093906001600160a01b031681565b34801561013157600080fd5b5061013b60015481565b6040519081526020016100a7565b34801561015557600080fd5b506100d06101643660046104c3565b6102f6565b34801561017557600080fd5b506100d06101843660046104c3565b610320565b600060015434106101d45760405162461bcd60e51b815260206004820152601060248201526f496e73756666696369656e742066656560801b60448201526064015b60405180910390fd5b600033878787876040516020016101ef95949392919061051c565b60405160208183030381529060405280519060200120905060008188888888883360405161021c906103db565b61022b96959493929190610560565b8190604051809103906000f590508015801561024b573d6000803e3d6000fd5b506002546040519192506001600160a01b0316903480156108fc02916000818181858888f19350505050158015610286573d6000803e3d6000fd5b507fb7d8fd3c9d56d12c15c8e139bc4e6febd6ad2349b3ebe6a1a91c0a9e7797710d818989898989336040516102c297969594939291906105ab565b60405180910390a1979650505050505050565b6102dd61035e565b600155565b6102ea61035e565b6102f4600061038b565b565b6102fe61035e565b600280546001600160a01b0319166001600160a01b0392909216919091179055565b61032861035e565b6001600160a01b03811661035257604051631e4fbdf760e01b8152600060048201526024016101cb565b61035b8161038b565b50565b6000546001600160a01b031633146102f45760405163118cdaa760e01b81523360048201526024016101cb565b600080546001600160a01b038381166001600160a01b0319831681178455604051919092169283917f8be0079c531659141344cd1fd0a4f28419497f9722a3daafe3b4186f6b6457e09190a35050565b610be68061060983390190565b60008083601f8401126103fa57600080fd5b50813567ffffffffffffffff81111561041257600080fd5b60208301915083602082850101111561042a57600080fd5b9250929050565b60008060008060006060868803121561044957600080fd5b853567ffffffffffffffff81111561046057600080fd5b61046c888289016103e8565b909650945050602086013567ffffffffffffffff81111561048c57600080fd5b610498888289016103e8565b96999598509660400135949350505050565b6000602082840312156104bc57600080fd5b5035919050565b6000602082840312156104d557600080fd5b81356001600160a01b03811681146104ec57600080fd5b9392505050565b81835281816020850137506000828201602090810191909152601f909101601f19169091010190565b6001600160a01b038616815260606020820181905260009061054190830186886104f3565b82810360408401526105548185876104f3565b98975050505050505050565b60808152600061057460808301888a6104f3565b82810360208401526105878187896104f3565b604084019590955250506001600160a01b0391909116606090910152949350505050565b6001600160a01b038816815260a0602082018190526000906105d0908301888a6104f3565b82810360408401526105e38187896104f3565b606084019590955250506001600160a01b03919091166080909101529594505050505056fe608060405234801561001057600080fd5b50604051610be6380380610be683398101604081905261002f91610295565b8383600361003d83826103b1565b50600461004a82826103b1565b50505061006a8183670de0b6b3a76400006100659190610485565b610073565b505050506104b5565b6001600160a01b0382166100a25760405163ec442f0560e01b8152600060048201526024015b60405180910390fd5b6100ae600083836100b2565b5050565b6001600160a01b0383166100dd5780600260008282546100d291906104a2565b9091555061014f9050565b6001600160a01b038316600090815260208190526040902054818110156101305760405163391434e360e21b81526001600160a01b03851660048201526024810182905260448101839052606401610099565b6001600160a01b03841660009081526020819052604090209082900390555b6001600160a01b03821661016b5760028054829003905561018a565b6001600160a01b03821660009081526020819052604090208054820190555b816001600160a01b0316836001600160a01b03167fddf252ad1be2c89b69c2b068fc378daa952ba7f163c4a11628f55a4df523b3ef836040516101cf91815260200190565b60405180910390a3505050565b634e487b7160e01b600052604160045260246000fd5b600082601f83011261020357600080fd5b81516001600160401b0381111561021c5761021c6101dc565b604051601f8201601f19908116603f011681016001600160401b038111828210171561024a5761024a6101dc565b60405281815283820160200185101561026257600080fd5b60005b8281101561028157602081860181015183830182015201610265565b506000918101602001919091529392505050565b600080600080608085870312156102ab57600080fd5b84516001600160401b038111156102c157600080fd5b6102cd878288016101f2565b602087015190955090506001600160401b038111156102eb57600080fd5b6102f7878288016101f2565b60408701516060880151919550935090506001600160a01b038116811461031d57600080fd5b939692955090935050565b600181811c9082168061033c57607f821691505b60208210810361035c57634e487b7160e01b600052602260045260246000fd5b50919050565b601f8211156103ac57806000526020600020601f840160051c810160208510156103895750805b601f840160051c820191505b818110156103a95760008155600101610395565b50505b505050565b81516001600160401b038111156103ca576103ca6101dc565b6103de816103d88454610328565b84610362565b6020601f82116001811461041257600083156103fa5750848201515b600019600385901b1c1916600184901b1784556103a9565b600084815260208120601f198516915b828110156104425787850151825560209485019460019092019101610422565b50848210156104605786840151600019600387901b60f8161c191681555b50505050600190811b01905550565b634e487b7160e01b600052601160045260246000fd5b808202811582820484141761049c5761049c61046f565b92915050565b8082018082111561049c5761049c61046f565b610722806104c46000396000f3fe608060405234801561001057600080fd5b50600436106100935760003560e01c8063313ce56711610066578063313ce567146100fe57806370a082311461010d57806395d89b4114610136578063a9059cbb1461013e578063dd62ed3e1461015157600080fd5b806306fdde0314610098578063095ea7b3146100b657806318160ddd146100d957806323b872dd146100eb575b600080fd5b6100a061018a565b6040516100ad919061056b565b60405180910390f35b6100c96100c43660046105d5565b61021c565b60405190151581526020016100ad565b6002545b6040519081526020016100ad565b6100c96100f93660046105ff565b610236565b604051601281526020016100ad565b6100dd61011b36600461063c565b6001600160a01b031660009081526020819052604090205490565b6100a061025a565b6100c961014c3660046105d5565b610269565b6100dd61015f36600461065e565b6001600160a01b03918216600090815260016020908152604080832093909416825291909152205490565b60606003805461019990610691565b80601f01602080910402602001604051908101604052809291908181526020018280546101c590610691565b80156102125780601f106101e757610100808354040283529160200191610212565b820191906000526020600020905b8154815290600101906020018083116101f557829003601f168201915b5050505050905090565b60003361022a818585610277565b60019150505b92915050565b600033610244858285610289565b61024f85858561030d565b506001949350505050565b60606004805461019990610691565b60003361022a81858561030d565b610284838383600161036c565b505050565b6001600160a01b0383811660009081526001602090815260408083209386168352929052205460001981101561030757818110156102f857604051637dc7a0d960e11b81526001600160a01b038416600482015260248101829052604481018390526064015b60405180910390fd5b6103078484848403600061036c565b50505050565b6001600160a01b03831661033757604051634b637e8f60e11b8152600060048201526024016102ef565b6001600160a01b0382166103615760405163ec442f0560e01b8152600060048201526024016102ef565b610284838383610441565b6001600160a01b0384166103965760405163e602df0560e01b8152600060048201526024016102ef565b6001600160a01b0383166103c057604051634a1406b160e11b8152600060048201526024016102ef565b6001600160a01b038085166000908152600160209081526040808320938716835292905220829055801561030757826001600160a01b0316846001600160a01b03167f8c5be1e5ebec7d5bd14f71427d1e84f3dd0314c0f7b2291e5b200ac8c7c3b9258460405161043391815260200190565b60405180910390a350505050565b6001600160a01b03831661046c57806002600082825461046191906106cb565b909155506104de9050565b6001600160a01b038316600090815260208190526040902054818110156104bf5760405163391434e360e21b81526001600160a01b038516600482015260248101829052604481018390526064016102ef565b6001600160a01b03841660009081526020819052604090209082900390555b6001600160a01b0382166104fa57600280548290039055610519565b6001600160a01b03821660009081526020819052604090208054820190555b816001600160a01b0316836001600160a01b03167fddf252ad1be2c89b69c2b068fc378daa952ba7f163c4a11628f55a4df523b3ef8360405161055e91815260200190565b60405180910390a3505050565b602081526000825180602084015260005b81811015610599576020818601810151604086840101520161057c565b506000604082850101526040601f19601f83011684010191505092915050565b80356001600160a01b03811681146105d057600080fd5b919050565b600080604083850312156105e857600080fd5b6105f1836105b9565b946020939093013593505050565b60008060006060848603121561061457600080fd5b61061d846105b9565b925061062b602085016105b9565b929592945050506040919091013590565b60006020828403121561064e57600080fd5b610657826105b9565b9392505050565b6000806040838503121561067157600080fd5b61067a836105b9565b9150610688602084016105b9565b90509250929050565b600181811c908216806106a557607f821691505b6020821081036106c557634e487b7160e01b600052602260045260246000fd5b50919050565b8082018082111561023057634e487b7160e01b600052601160045260246000fdfea26469706673582212206e2f884adb6db9c145c62f9f02e4c16a0acc382be44974e375f68800664d2eae64736f6c634300081c0033a2646970667358221220e2ba5c24a64041ae525d5d59ea7e9d99b4bd5d31bf6b8203d5363bfb5051e96a64736f6c634300081c0033",
  "linkReferences": {},
  "deployedLinkReferences": {}
}